:100000000C942A000C943C000C943C000C940102CB
:100010000C943C000C943C000C943C000C943C0070
:100020000C943C000C943C000C943C000C943C0060
:100030000C943C000C943C000C943C000C943C0050
:100040000C943C000C943C000C943C000C943C0040
:100050000C943C0011241FBECFE5D8E0DEBFCDBF1D
:1000600020E0A0E6B0E001C01D92AE36B207E1F795
:100070000E9447020C9482080C940000CF930E94C7
:10008000EF03C82F0E94590693E090936D008C2BCC
:10009000CF9108951F93CF93DF9300D0CDB7DEB7F4
:1000A0000E946B06182FCE0101960E949506182B10
:1000B00080916D00813081F1C8F0823009F441C037
:1000C000833009F055C089819A818431910520F4EB
:1000D00081E080936D004DC04497459720F482E005
:1000E00080936D0046C010926D0043C089819A8153
:1000F0008431910520F481E080936D003AC04497EB
:10010000459720F482E080936D0033C06EE181E07A
:100110000E94FA03182B2DC089819A8184319105A0
:1001200030F46EE182E00E94FA03182B22C044975B
:10013000459720F482E080936D001BC010926D0003
:1001400018C089819A819C012451310925313105DA
:1001500030F46EE184E00E94FA03182B0AC0449741
:1001600020F481E080936D0004C010926D0001C006
:100170001160812F0F900F90DF91CF911F91089503
:10018000FC0182818F3F09F58081813061F028F088
:10019000823079F0833099F036C09AB38181892B0F
:1001A0008ABB80E0089597B38181892B87BB80E06B
:1001B000089594B38181892B84BB80E0089591B325
:1001C0008181892B81BB80E0089581111EC08081CF
:1001D000823059F0833081F08130C9F497B3818146
:1001E0008095892387BB80E0089594B381818095B1
:1001F000892384BB80E0089591B381818095892310
:1002000081BB80E0089581E0089581E0089581E058
:1002100008954F3FF1F4813059F028F0823079F0A1
:10022000833091F038C08BB3682B6BBB80E00895AE
:1002300098B388B3692B682B68BB80E0089585B3B9
:10024000682B65BB80E0089582B3682B62BB80E0B9
:100250000895411122C0813061F028F0823079F098
:10026000833099F01CC08BB3609568236BBB80E032
:10027000089588B36095682368BB80E0089585B3CE
:100280006095682365BB80E0089582B3609568231C
:1002900062BB80E0089581E0089581E0089581E0E7
:1002A0000895CF93DF9300D000D000D0CDB7DEB754
:1002B000009789F0FC0120812093640081818111E5
:1002C0000CC019821A821B8287E08C83CE010196B2
:1002D0000E944F0403C081E001C081E026960FB662
:1002E000F894DEBF0FBECDBFDF91CF910895EF929E
:1002F000FF920F931F93CF93DF9300D000D01F92F4
:10030000CDB7DEB7F62E8A011A82198210926300E9
:1003100080936200882329F08330B8F1FF24F3949E
:1003200035C0809164008230E8F0823011F081E0C5
:100330001AC081E08B8384E08C831D82CE010396FA
:100340000E94C00091E0F91204C094B7906494BF79
:100350000AC0E2E0FE1204C094B79F7B94BF03C0C2
:10036000816001C080E0909164007894923048F000
:10037000923011F091E006C09BB790629BBF90E075
:1003800001C090E0F92EF82A01C0F12C9091610093
:100390009923E1F380916200BE016F5F7F4F0E945D
:1003A000F804E82E60E670E080E00E94C3048E2925
:1003B0008F2990916000913021F420E031E03A8360
:1003C00029831092600049815A81002456954795EF
:1003D0000794569547950794542F402D60E070E0A0
:1003E000F80140835183628373830F900F900F90C5
:1003F0000F900F90DF91CF911F910F91FF90EF9091
:1004000008951F920F920FB60F9211242F933F93CE
:100410004F935F936F937F938F939F93AF93BF930C
:10042000EF93FF9380916300882319F0813081F06E
:100430001DC080916200811119C060E071E00E94CE
:100440002A0584B78F7B84BF81E0809363000EC050
:100450008091620081110AC00E94AA0484B780645E
:1004600084BF1092630081E080936100FF91EF915F
:10047000BF91AF919F918F917F916F915F914F91BC
:100480003F912F910F900FBE0F901F901895CF9313
:10049000DF9300D01F92CDB7DEB788EE93E00E94C5
:1004A000160681E0898380EF8A838FEF8B83CE01EC
:1004B00001960E94C0000E943E000E944A00FDCFAB
:1004C0001F93CF93DF93CDB7DEB727970FB6F8947E
:1004D000DEBF0FBECDBF813019F08230E1F036C0F3
:1004E00081E08C8386E08D83CE0104960E943903DF
:1004F000182F83E089838CE18A838FEF8B83CE0171
:1005000001960E94C000182B40E06A8189810E94F8
:100510000901812B1CC082E08E8386E08F83CE018F
:1005200006960E943903182F83E0898380EE8A8320
:100530008FEF8B83CE0101960E94C000182B40E004
:100540006A8189810E940901812B01C081E027967F
:100550000FB6F894DEBF0FBECDBFDF91CF911F91D4
:100560000895CF93813019F0823071F15AC0613013
:1005700021F0E8F0623071F056C040E068E083E0BE
:100580000E940901C82F4FEF64E083E00E94090137
:100590008C2B4CC04FEF68E083E00E940901C82F0C
:1005A00040E064E083E00E9409018C2B3FC040E002
:1005B00068E083E00E940901C82F40E064E083E026
:1005C0000E9409018C2B32C0613021F0E8F06230CA
:1005D00071F02BC04FEF60E483E00E940901C82F47
:1005E00040E060E883E00E9409018C2B1FC040E0DE
:1005F00060E483E00E940901C82F4FEF60E883E0C8
:100600000E9409018C2B12C040E060E483E00E944C
:100610000901C82F40E060E883E00E9409018C2BAB
:1006200005C081E003C081E001C081E0CF91089561
:10063000CF93DF93D62F813019F0823051F014C060
:1006400024E630E040E050E081E00E948B03C82FB8
:1006500001C0C0E024E630E040E050E06D2F82E0D1
:100660000E948B038C2B01C080E08160DF91CF91D1
:1006700008950F931F93CF93DF9300D01F92CDB7B0
:10068000DEB78C0183E0898380E38A838FEF8B83DD
:10069000CE0101960E94C00091E00115110509F0FC
:1006A00090E0892BF8019181963050F0963039F422
:1006B00025E030E0309366002093650001C0816042
:1006C000F8019081913031F0F0F0923079F0933070
:1006D000C9F419C02EB53FB5206132603FBD2EBDB3
:1006E0002EB53FB530683FBD2EBD0DC02EB53FB510
:1006F000206132603FBD2EBD2EB53FB530623FBD9B
:100700002EBD01C081600F900F900F90DF91CF91AF
:100710001F910F910895CF92DF92EF92FF92CF93A6
:10072000DF93D82FC62FCA01B9010E94650720E0C8
:1007300030E040E055E40E94F3079B01AC0160E02B
:1007400074E284E79BE40E94C4060E9436076B01B2
:100750007C018C2F90E08C9DB0018D9D700D9C9D37
:10076000700D112480E090E00E94650720E030E0E9
:1007700048EC52E40E94C4060E943607D13039F09A
:1007800030F1D230A1F0D33011F181E021C0D7BCDB
:10079000C6BC7BBD6ABD2EB53FB58091650090910A
:1007A0006600822B932B9FBD8EBD80E011C0D7BC0D
:1007B000C6BC79BD68BD2EB53FB5809165009091EE
:1007C0006600822B932B9FBD8EBD80E001C080E030
:1007D000DF91CF91FF90EF90DF90CF900895CF936E
:1007E00081E00E946002C82F82E00E9460028C2B90
:1007F000CF910895CF93DF93D62F823009F128F45B
:10080000882341F0813089F03CC0833021F184306D
:1008100069F137C060E081E00E94B102C82F60E05A
:1008200082E00E94B102C82B2DC061E081E00E94ED
:10083000B102C82F61E082E00E94B102C82B22C041
:1008400062E081E00E94B102C82F62E082E00E9473
:10085000B102C82B17C061E081E00E94B102C82F2D
:1008600062E082E00E94B102C82B0CC062E082E02C
:100870000E94B102C82F61E081E00E94B102C82B42
:1008800001C0C1E06D2F81E00E941803C82B6D2FBD
:1008900082E00E9418038C2BDF91CF910895FC0118
:1008A00080818130D9F018F0823091F14BC013BEB5
:1008B000838180936C0081818093690083B783BFBB
:1008C0008281811104C089B789BF80E00895813099
:1008D000D9F589B7816089BF80E008951FBC1EBC2F
:1008E000838180936B008181809368008EB59FB572
:1008F0009FBD8EBD8281811104C089B789BF80E010
:100900000895813019F589B7846089BF80E0089522
:1009100015BC82B5807F82BD838180936A0081810E
:100920008093670085B585BD8281811104C089B738
:1009300089BF80E00895813059F489B7806489BF08
:1009400080E0089581E0089580E0089580E00895B2
:1009500080E00895813049F018F0823069F011C0CC
:1009600083B7887F83BF80E008958EB59FB5887F69
:100970009FBD8EBD80E0089585B5887F85BD80E0F0
:10098000089581E0089591E06115710509F090E006
:10099000813089F018F08230D9F027C008B600FE07
:1009A00007C081E0FB01808388B7816088BF1EC0DB
:1009B000FB0110821BC008B602FE07C081E0FB01EC
:1009C000808388B7846088BF11C0FB0110820EC08D
:1009D00008B606FE07C081E0FB01808388B780640B
:1009E00088BF04C0FB01108201C091E0892F0895E7
:1009F00091E06115710509F090E0813051F018F037
:100A0000823069F012C022B730E0FB0131832083CD
:100A10000DC02CB53DB5FB013183208307C024B543
:100A200030E0FB013183208301C091E0892F0895DC
:100A3000813039F018F0823041F00AC062BF80E0A6
:100A400008957DBD6CBD80E0089564BD80E008958B
:100A500081E00895CF93C82F80E091E09C01261B90
:100A6000370BB9018C2F0E941805C13009F448C01A
:100A700020F0C23009F498C0D4C08091690081117F
:100A800030C080916C008230C1F028F4882359F086
:100A9000813071F0BCC08630D1F08730E9F084300D
:100AA00009F0B5C00FC083B7886F83BF80E0BCC0BA
:100AB00083B7816083BF80E0B7C083B7826083BFA4
:100AC00080E0B2C083B7836083BF80E0ADC083B7EE
:100AD000846083BF80E0A8C083B7856083BF80E067
:100AE000A3C0813029F483B7876083BF80E09CC0B6
:100AF000823009F08EC083B7866083BF80E094C0E7
:100B00008091680081113DC080916B008230E9F0D6
:100B100028F4882359F0813089F07DC0863019F19E
:100B2000873041F1843009F076C016C08EB59FB58C
:100B3000886F9F6F9FBD8EBD80E076C08EB59FB5DC
:100B400081609FBD8EBD80E06FC08EB59FB5826015
:100B50009FBD8EBD80E068C08EB59FB583609FBD90
:100B60008EBD80E061C08EB59FB584609FBD8EBD97
:100B700080E05AC08EB59FB585609FBD8EBD80E078
:100B800053C0813039F48EB59FB587609FBD8EBD4F
:100B900080E04AC0823009F040C08EB59FB58660C3
:100BA0009FBD8EBD80E040C08091670081113BC039
:100BB00080916A008230B9F028F4882351F08130A6
:100BC00069F02DC08630C9F08730E1F0843039F506
:100BD0000FC085B5886F85BD80E026C085B5816072
:100BE00085BD80E021C085B5826085BD80E01CC0E8
:100BF00085B5846085BD80E017C085B5866085BDFC
:100C000080E012C085B5876085BD80E00DC081E0C1
:100C10000BC081E009C081E007C081E005C081E030
:100C200003C081E001C081E0CF910895EF92FF926F
:100C30001F93CF93DF93CDB7DEB727970FB6F89406
:100C4000DEBF0FBECDBF7C01198282E08A831B828A
:100C50001C8284E08D83CE0102960E944F04182FDF
:100C60006FEE70E08A810E942A05182BE114F104CE
:100C700081F0BE016F5F7F4F8A810E94C304182BF1
:100C80008981813019F481E0E81AF108E114F10456
:100C900081F78A810E94AA04812B27960FB6F894C7
:100CA000DEBF0FBECDBFDF91CF911F91FF90EF90C0
:100CB0000895CF93DF9300D0CDB7DEB71A8282E0DC
:100CC0008983CE0101960E94510180E00F900F9020
:100CD000DF91CF9108951F93CF93DF9300D01F92A0
:100CE000CDB7DEB782E0898380E88A838FEF8B837C
:100CF000CE0101960E94C000182F4FEF60E882E0FD
:100D00000E940901182B8AE090E00E941606182B19
:100D100040E060E882E00E940901812B0F900F9073
:100D20000F90DF91CF911F910895FF920F931F9322
:100D3000CF93DF9300D000D0CDB7DEB70097B9F0E6
:100D40008C01AE014F5F5F4F61E080E00E94770150
:100D5000F82E69817A818B819C812AE330E040E022
:100D600050E00E946008F8013183208302C0FF2414
:100D7000F3948F2D0F900F900F900F90DF91CF91E4
:100D80001F910F91FF9008950E94D8060C94B90707
:100D90000E94B20758F00E94AB0740F029F45F3F71
:100DA00029F00C94A20751110C94ED070C94A8079C
:100DB0000E94CA0768F39923B1F3552391F3951B59
:100DC000550BBB27AA2762177307840738F09F5F6C
:100DD0005F4F220F331F441FAA1FA9F335D00E2ED9
:100DE0003AF0E0E832D091505040E695001CCAF746
:100DF0002BD0FE2F29D0660F771F881FBB1F261709
:100E000037074807AB07B0E809F0BB0B802DBF01DF
:100E1000FF2793585F4F3AF09E3F510578F00C94AE
:100E2000A2070C94ED075F3FE4F3983ED4F3869558
:100E300077956795B795F7959F5FC9F7880F911DCF
:100E40009695879597F90895E1E0660F771F881FBB
:100E5000BB1F621773078407BA0720F0621B730B6E
:100E6000840BBA0BEE1F88F7E09508950E94D20715
:100E700088F09F5798F0B92F9927B751B0F0E1F05B
:100E8000660F771F881F991F1AF0BA95C9F714C00B
:100E9000B13091F00E94EC07B1E008950C94EC079A
:100EA000672F782F8827B85F39F0B93FCCF3869544
:100EB00077956795B395D9F73EF4909580957095A1
:100EC00061957F4F8F4F9F4F0895E89409C097FB1E
:100ED0003EF490958095709561957F4F8F4F9F4F11
:100EE0009923A9F0F92F96E9BB279395F695879555
:100EF00077956795B795F111F8CFFAF4BB0F11F418
:100F000060FF1BC06F5F7F4F8F4F9F4F16C08823BE
:100F100011F096E911C0772321F09EE8872F762FF4
:100F200005C0662371F096E8862F70E060E02AF035
:100F30009A95660F771F881FDAF7880F9695879521
:100F400097F9089597F99F6780E870E060E0089549
:100F50009FEF80EC089500240A94161617061806D1
:100F60000906089500240A941216130614060506AD
:100F70000895092E0394000C11F4882352F0BB0F3E
:100F800040F4BF2B11F460FF04C06F5F7F4F8F4FA1
:100F90009F4F089557FD9058440F551F59F05F3FDC
:100FA00071F04795880F97FB991F61F09F3F79F08B
:100FB00087950895121613061406551FF2CF46950D
:100FC000F1DF08C0161617061806991FF1CF86958F
:100FD0007105610508940895E894BB276627772773
:100FE000CB0197F908950E9406080C94B9070E9456
:100FF000AB0738F00E94B20720F0952311F00C9453
:10100000A2070C94A80711240C94ED070E94CA07AC
:1010100070F3959FC1F3950F50E0551F629FF0014B
:10102000729FBB27F00DB11D639FAA27F00DB11D64
:10103000AA1F649F6627B00DA11D661F829F2227ED
:10104000B00DA11D621F739FB00DA11D621F839F74
:10105000A00D611D221F749F3327A00D611D231F4A
:10106000849F600D211D822F762F6A2F11249F5798
:1010700050409AF0F1F088234AF0EE0FFF1FBB1F9B
:10108000661F771F881F91505040A9F79E3F51055A
:1010900080F00C94A2070C94ED075F3FE4F3983EB8
:1010A000D4F3869577956795B795F795E7959F5F04
:1010B000C1F7FE2B880F911D9695879597F9089596
:1010C000A1E21A2EAA1BBB1BFD010DC0AA1FBB1F4C
:1010D000EE1FFF1FA217B307E407F50720F0A21BBE
:1010E000B30BE40BF50B661F771F881F991F1A942B
:1010F00069F760957095809590959B01AC01BD0155
:08110000CF010895F894FFCF20
:00000001FF
