S01F00004361725F5374617469635F4172636869746563747572652E73726563E6
S11300000C942A000C943C000C943C000C94FF01CA
S11300100C943C000C943C000C943C000C943C006C
S11300200C943C000C943C000C943C000C943C005C
S11300300C943C000C943C000C943C000C943C004C
S11300400C943C000C943C000C943C000C943C003C
S11300500C943C0011241FBECFE5D8E0DEBFCDBF19
S113006020E0A0E6B0E001C01D92AD36B207E1F792
S11300700E944F020C9460080C940000CF930E94DD
S1130080E303C82F0E94440693E090936C008C2BEA
S1130090CF9108951F93CF93DF9300D0CDB7DEB7F0
S11300A00E945606182FCE0101960E947B06182B3B
S11300B080916C00813081F1C8F0823009F441C034
S11300C0833009F054C089819A818431910520F4E8
S11300D081E080936C004BC04497459720F482E004
S11300E080936C0044C010926C0041C089819A8155
S11300F08431910520F481E080936C0038C04497EA
S1130100459720F482E080936C0031C06EE181E079
S11301100E94EB03182B2BC089819A8184319105AD
S113012030F46EE182E00E94EB03182B20C0449768
S1130130459720F482E080936C0019C010926C0003
S113014016C089819A819C012451310925313105D8
S113015030F46EE184E00E94EB03182B08C044974E
S113016020F481E080936C0002C010926C00812F17
S11301700F900F90DF91CF911F910895FC01828120
S11301808F3F09F58081813061F028F0823079F069
S1130190833099F036C09AB38181892B8ABB80E081
S11301A0089597B38181892B87BB80E0089594B328
S11301B08181892B84BB80E0089591B38181892B4F
S11301C081BB80E0089581111EC08081823059F086
S11301D0833081F08130C9F497B38181809589237C
S11301E087BB80E0089594B381818095892384BB83
S11301F080E0089591B381818095892381BB80E05B
S1130200089581E0089581E0089581E008954F3FC5
S1130210F1F4813059F028F0823079F0833091F094
S113022038C08BB3682B6BBB80E0089598B388B358
S1130230692B682B68BB80E0089585B3682B65BB88
S113024080E0089582B3682B62BB80E00895411179
S113025022C0813061F028F0823079F0833099F047
S11302601CC08BB3609568236BBB80E0089588B392
S11302706095682368BB80E0089585B36095682322
S113028065BB80E0089582B36095682362BB80E01B
S1130290089581E0089581E0089581E008951F9311
S11302A0CF93DF9300D01F92CDB7DEB7623018F042
S11302B0623019F01AC080E01BC0182F81E08983D6
S11302C084E08A831B82CE0101960E94BE00113015
S11302D029F484B7806484BF80E00AC0123039F402
S11302E084B78F7B84BF80E003C081E001C081E0DC
S11302F00F900F900F90DF91CF911F91089562306E
S113030018F0623019F007C080E008958BB780625E
S11303108BBF80E0089581E00895CF93DF9300D0F0
S113032000D000D0CDB7DEB70097B1F0FC0120813A
S1130330209363008181882321F0833078F480E066
S11303400EC019821A821B8287E08C83CE0101962B
S11303500E943A0480E003C081E001C081E0269657
S11303600FB6F894DEBF0FBECDBFDF91CF910895D5
S1130370FF920F931F93CF93DF9300D0CDB7DEB7D7
S1130380F62E8A011A82198210926200809361000B
S1130390882319F0833050F50AC0609163008F2DD3
S11303A00E944F01609163008F2D0E947F01809114
S11303B060008823E1F380916100BE016F5F7F4F8D
S11303C00E94E80489819A81002496958795079470
S11303D0969587950794982F802DA0E0B0E0F801BA
S11303E080839183A283B38380E001C081E00F9076
S11303F00F90DF91CF911F910F91FF9008951F925D
S11304000F920FB60F9211242F933F934F935F9344
S11304106F937F938F939F93AF93BF93EF93FF93C8
S113042080916200882319F08130A9F027C04FEF32
S113043062E080E00E9407018091610081111EC08A
S113044060E071E00E941C0584B78F7B84BF81E06B
S11304508093620013C040E062E080E00E940701E4
S11304608091610081110AC00E94950484B7806460
S113047084BF1092620081E080936000FF91EF914D
S1130480BF91AF919F918F917F916F915F914F91A8
S11304903F912F910F900FBE0F901F901895CF93FF
S11304A0DF9300D01F92CDB7DEB788EE93E00E94B1
S11304B00806789481E0898380EF8A838FEF8B83A9
S11304C0CE0101960E94BE000E943E000E944A0096
S11304D0FDCFCF93DF93CDB7DEB727970FB6F89450
S11304E0DEBF0FBECDBF813019F08230D1F032C0F3
S11304F081E08C8386E08D83CE0104960E942C03D8
S113050083E089838CE18A838FEF8B83CE0101960C
S11305100E94BE0040E06A8189810E94070180E058
S11305201AC082E08E8386E08F83CE0106960E94F5
S11305302C0383E0898380EE8A838FEF8B83CE0143
S113054001960E94BE0040E06A8189810E940701F1
S113055080E001C081E027960FB6F894DEBF0FBE9D
S1130560CDBFDF91CF910895813019F0823059F1D8
S113057054C0613021F0D8F0623069F050C040E0DE
S113058068E083E00E9407014FEF64E083E00E948B
S1130590070180E008954FEF68E083E00E940701BF
S11305A040E064E083E00E94070180E0089540E0B9
S11305B068E083E00E94070140E064E083E00E9479
S11305C0070180E00895613021F0D8F0623069F0CD
S11305D028C04FEF60E483E00E94070140E060E838
S11305E083E00E94070180E0089540E060E483E036
S11305F00E9407014FEF60E883E00E94070180E05A
S1130600089540E060E483E00E94070140E060E870
S113061083E00E94070180E0089581E0089580E06E
S1130620089581E00895CF93C62F813019F0823068
S113063041F00FC024E630E040E050E081E00E9449
S11306407F0324E630E040E050E06C2F82E00E941B
S11306507F0381E0CF9108950F931F93CF93DF938E
S113066000D01F92CDB7DEB70097E1F18C0183E093
S1130670898380E38A838FEF8B83CE0101960E9466
S1130680BE00F8018181863040F0863069F585E04E
S113069090E09093650080936400F801808181303C
S11306A039F020F0823089F0833001F580E01FC0FA
S11306B08EB59FB5806192609FBD8EBD8EB59FB58E
S11306C090689FBD8EBD80E012C08EB59FB58061DD
S11306D092609FBD8EBD8EB59FB590629FBD8EBD4D
S11306E080E005C081E003C081E001C081E00F909B
S11306F00F900F90DF91CF911F910F910895CF929A
S1130700DF92EF92FF92CF93DF93D82FC62FCA01C7
S1130710B9010E94430720E030E040E055E40E9424
S1130720D1079B01AC0160E074E284E79BE40E9482
S1130730A2060E9414076B017C018C2F90E08C9D13
S1130740B0018D9D700D9C9D700D112480E090E092
S11307500E94430720E030E048EC52E40E94A206E5
S11307600E941407D13039F020F0D230A1F0D330F8
S113077011F580E021C0D7BCC6BC7BBD6ABD2EB5D7
S11307803FB58091640090916500822B932B9FBDAF
S11307908EBD80E011C0D7BCC6BC79BD68BD2EB586
S11307A03FB58091640090916500822B932B9FBD8F
S11307B08EBD80E001C081E0DF91CF91FF90EF908A
S11307C0DF90CF90089581E00E94690282E00E9448
S11307D0690280E00895CF93DF93C62F8230F9F049
S11307E028F4882341F0813081F037C0833009F147
S11307F0843049F132C060E081E00E94B40260E0DC
S113080082E00E94B402D0E029C061E081E00E944D
S1130810B40261E082E00E94B402D0E01FC062E052
S113082081E00E94B40262E082E00E94B402D0E05F
S113083015C061E081E00E94B40262E082E00E949F
S1130840B402D0E00BC062E082E00E94B40261E036
S113085081E00E94B402D0E001C0D1E06C2F81E0BD
S11308600E9413036C2F82E00E9413038D2FDF91EB
S1130870CF910895FC0180818130D9F018F0823045
S113088091F14BC013BE838180936B00818180936F
S1130890680083B783BF8281811104C089B789BF8F
S11308A080E008958130D9F589B7816089BF80E0FF
S11308B008951FBC1EBC838180936A00818180934C
S11308C067008EB59FB59FBD8EBD8281811104C026
S11308D089B789BF80E00895813019F589B78460AC
S11308E089BF80E0089515BC82B5807F82BD838175
S11308F08093690081818093660085B585BD82817E
S1130900811104C089B789BF80E00895813059F40A
S113091089B7806489BF80E0089581E0089580E00C
S1130920089580E0089580E00895813049F018F03A
S1130930823069F011C083B7887F83BF80E0089557
S11309408EB59FB5887F9FBD8EBD80E0089585B527
S1130950887F85BD80E0089581E008956115710563
S113096099F1813099F018F08230F9F02FC008B66F
S113097000FE08C081E0FB01808388B7816088BFE6
S113098080E00895FB01108280E0089508B602FE1D
S113099008C081E0FB01808388B7846088BF80E061
S11309A00895FB01108280E0089508B606FE08C091
S11309B081E0FB01808388B7806488BF80E008956C
S11309C0FB01108280E0089581E0089581E008959C
S11309D061157105D9F0813059F018F0823079F041
S11309E017C082B790E0FB019183808380E0089573
S11309F08CB59DB5FB019183808380E0089584B517
S1130A0090E0FB019183808380E0089581E0089564
S1130A1081E00895813039F018F0823041F00AC045
S1130A2062BF80E008957DBD6CBD80E0089564BD23
S1130A3080E0089581E00895CF93C82F80E091E08D
S1130A409C01261B370BB9018C2F0E940A05C1306B
S1130A5009F448C020F0C23009F498C0CAC080919B
S1130A606800811130C080916B008230C1F028F49D
S1130A70882359F0813071F0BEC08630D1F08730C0
S1130A80E9F0843009F0B7C00FC083B7886F83BF23
S1130A9080E0BCC083B7816083BF80E0B7C083B708
S1130AA0826083BF80E0B2C083B7836083BF80E08D
S1130AB0ADC083B7846083BF80E0A8C083B785607E
S1130AC083BF80E0A3C0813029F483B7876083BFEC
S1130AD080E09CC0823009F090C083B7866083BFF9
S1130AE080E094C08091670081113DC080916A00CC
S1130AF08230E9F028F4882359F0813089F07FC0EE
S1130B00863019F1873041F1843009F078C016C07D
S1130B108EB59FB5886F9F6F9FBD8EBD80E076C0F8
S1130B208EB59FB581609FBD8EBD80E06FC08EB5D0
S1130B309FB582609FBD8EBD80E068C08EB59FB5B5
S1130B4083609FBD8EBD80E061C08EB59FB584601B
S1130B509FBD8EBD80E05AC08EB59FB585609FBD98
S1130B608EBD80E053C0813039F48EB59FB5876067
S1130B709FBD8EBD80E04AC0823009F042C08EB570
S1130B809FB586609FBD8EBD80E040C080916600A9
S1130B90811139C0809169008230B9F028F488232A
S1130BA051F0813069F031C08630C9F08730E1F00E
S1130BB0843059F50FC085B5886F85BD80E026C0A7
S1130BC085B5816085BD80E021C085B5826085BD25
S1130BD080E01CC085B5846085BD80E017C085B504
S1130BE0866085BD80E012C085B5876085BD80E0E4
S1130BF00DC081E00BC080E009C081E007C080E047
S1130C0005C081E003C081E001C081E0CF91089577
S1130C100F931F93CF93DF93CDB7DEB727970FB60C
S1130C20F894DEBF0FBECDBF8C01198282E08A83A7
S1130C301B821C8284E08D83CE0102960E943A04BA
S1130C406FEE70E08A810E941C050115110571F098
S1130C50BE016F5F7F4F8A810E94AE04898181301B
S1130C6011F4015011090115110591F78A810E94AF
S1130C70950427960FB6F894DEBF0FBECDBFDF9163
S1130C80CF911F910F910895CF93DF9300D0CDB7EB
S1130C90DEB71A8282E08983CE0101960E948D011B
S1130CA080E00F900F90DF91CF910895CF93DF9361
S1130CB000D01F92CDB7DEB782E0898380E88A83B3
S1130CC08FEF8B83CE0101960E94BE004FEF60E848
S1130CD082E00E9407018AE090E00E94080640E05A
S1130CE060E882E00E94070180E00F900F900F906F
S1130CF0DF91CF9108950F931F93CF93DF9300D08B
S1130D0000D0CDB7DEB78C01AE014F5F5F4F61E01D
S1130D1080E00E94B80169817A818B819C812AE3F9
S1130D2030E040E050E00E943E08F8013183208327
S1130D3080E00F900F900F900F90DF91CF911F9153
S1130D400F9108950E94B6060C9497070E9490078D
S1130D5058F00E94890740F029F45F3F29F00C9471
S1130D60800751110C94CB070C9486070E94A807A6
S1130D7068F39923B1F3552391F3951B550BBB27C6
S1130D80AA2762177307840738F09F5F5F4F220F0B
S1130D90331F441FAA1FA9F335D00E2E3AF0E0E802
S1130DA032D091505040E695001CCAF72BD0FE2F4C
S1130DB029D0660F771F881FBB1F261737074807E0
S1130DC0AB07B0E809F0BB0B802DBF01FF27935898
S1130DD05F4F3AF09E3F510578F00C9480070C94D5
S1130DE0CB075F3FE4F3983ED4F3869577956795F8
S1130DF0B795F7959F5FC9F7880F911D96958795CD
S1130E0097F90895E1E0660F771F881FBB1F6217EB
S1130E1073078407BA0720F0621B730B840BBA0BA9
S1130E20EE1F88F7E09508950E94B00788F09F5759
S1130E3098F0B92F9927B751B0F0E1F0660F771FFA
S1130E40881F991F1AF0BA95C9F714C0B13091F0F0
S1130E500E94CA07B1E008950C94CA07672F782F3F
S1130E608827B85F39F0B93FCCF3869577956795B5
S1130E70B395D9F73EF490958095709561957F4F21
S1130E808F4F9F4F0895E89409C097FB3EF49095C7
S1130E908095709561957F4F8F4F9F4F9923A9F04F
S1130EA0F92F96E9BB279395F695879577956795DE
S1130EB0B795F111F8CFFAF4BB0F11F460FF1BC022
S1130EC06F5F7F4F8F4F9F4F16C0882311F096E9B5
S1130ED011C0772321F09EE8872F762F05C0662363
S1130EE071F096E8862F70E060E02AF09A95660F1C
S1130EF0771F881FDAF7880F9695879597F90895D5
S1130F0097F99F6780E870E060E008959FEF80ECB8
S1130F10089500240A94161617061806090608955B
S1130F2000240A9412161306140605060895092EC1
S1130F300394000C11F4882352F0BB0F40F4BF2B30
S1130F4011F460FF04C06F5F7F4F8F4F9F4F089570
S1130F5057FD9058440F551F59F05F3F71F0479566
S1130F60880F97FB991F61F09F3F79F0879508954B
S1130F70121613061406551FF2CF4695F1DF08C06A
S1130F80161617061806991FF1CF86957105610587
S1130F9008940895E894BB2766277727CB0197F92F
S1130FA008950E94E4070C9497070E94890738F07B
S1130FB00E94900720F0952311F00C9480070C9464
S1130FC0860711240C94CB070E94A80770F3959F01
S1130FD0C1F3950F50E0551F629FF001729FBB272C
S1130FE0F00DB11D639FAA27F00DB11DAA1F649FC8
S1130FF06627B00DA11D661F829F2227B00DA11D7B
S1131000621F739FB00DA11D621F839FA00D611D00
S1131010221F749F3327A00D611D231F849F600D21
S1131020211D822F762F6A2F11249F5750409AF04A
S1131030F1F088234AF0EE0FFF1FBB1F661F771FD6
S1131040881F91505040A9F79E3F510580F00C94A1
S113105080070C94CB075F3FE4F3983ED4F3869566
S113106077956795B795F795E7959F5FC1F7FE2B41
S1131070880F911D9695879597F90895A1E21A2EE8
S1131080AA1BBB1BFD010DC0AA1FBB1FEE1FFF1F28
S1131090A217B307E407F50720F0A21BB30BE40B78
S11310A0F50B661F771F881F991F1A9469F76095BF
S11310B07095809590959B01AC01BD01CF01089579
S10710C0F894FFCFCE
S9030000FC
